:100000000C945A000C94EA000C946C000C946C0054
:100010000C946C000C946C000C946C000C946C00B0
:100020000C946C000C946C000C946C000C946C00A0
:100030000C946C000C946C000C946C000C946C0090
:100040000C946C000C946C000C946C000C946C0080
:100050000C946C00B301BA01C101C801CF01D601F3
:10006000DD01E401F601FD0104020B021202190296
:10007000200227023A02400246024C025202580273
:100080005E02640276027C02820288028E02940280
:100090009A02A002B202B802BE02C402CA02D00290
:1000A000D602DC02EE02F302F802FD0202030703AD
:1000B0000C03110311241FBECFE5D8E0DEBFCDBF76
:1000C00020E0A0E6B0E001C01D92A336B207E1F740
:1000D0000E9418030C9474070C94000060E080E008
:1000E0000E94300261E080E00E94300262E080E025
:1000F0000E94300260E081E00E94300261E081E015
:100100000E94300262E081E00E9430020E9480047E
:100110000E948B0482E00E94AA0182E00E94ED010D
:100120000E948F040895CF93C1E0C093610060E006
:1001300080E00E946C0265E070E080E090E00E9448
:10014000B00460E080E00E94A80210926100C093B9
:100150006000C0E00BC061E080E00E94E40261E06A
:1001600070E080E090E00E94B004CF5FC53098F36B
:1001700061E080E00E94A80210926000C1E0C0939C
:10018000620062E080E00E946C0265E070E080E066
:1001900090E00E94B00462E080E00E94A802109209
:1001A0006200C0936000C0E00BC061E080E00E948C
:1001B000E40261E070E080E090E00E94B004CF5F74
:1001C000C53098F361E080E00E94A80210926000C0
:1001D000CF9108951F920F920FB60F9211242F9373
:1001E0003F934F935F936F937F938F939F93AF93BF
:1001F000BF93CF93EF93FF9380916200813071F4AE
:1002000060E00E946C0262E080E00E946C0265E0A7
:1002100070E080E090E00E94B00445C080916100F1
:10022000813021F0809160008130E9F560E080E06C
:100230000E94A80262E081E00E946C0261E080E01E
:100240000E94A802C0E00FC061E080E00E94E402CA
:1002500061E081E00E94E40261E070E080E090E013
:100260000E94B004CF5FC53078F361E080E00E9467
:10027000A80261E081E00E94A80262E081E00E94A1
:10028000A80260E080E00E94A80260E081E00E9495
:100290006C0262E080E00E946C0265E070E080E049
:1002A00090E00E94B00462E080E00E94A802C0E0FA
:1002B0000FC061E080E00E94E40261E081E00E9402
:1002C000E40261E070E080E090E00E94B004CF5F63
:1002D000C53078F361E080E00E94A80261E081E02F
:1002E0000E94A80260E081E00E94A80262E081E032
:1002F0000E946C0260E080E00E946C0265E070E0A9
:1003000080E090E00E94B00460E081E00E94A802DA
:1003100061E081E00E94A80262E081E00E94A80200
:1003200098E088E10FB6F894A89581BD0FBE91BD05
:10033000FF91EF91CF91BF91AF919F918F917F915D
:100340006F915F914F913F912F910F900FBE0F9042
:100350001F90189590E088309105E8F5FC01E65D66
:10036000FF4F0C946E0740E060E083E00E942C0396
:1003700080E0089540E061E083E00E942C0380E08B
:10038000089540E062E083E00E942C0380E008953D
:1003900040E063E083E00E942C0380E0089540E0A9
:1003A00064E083E00E942C0380E0089540E065E073
:1003B00083E00E942C0380E0089540E066E083E043
:1003C0000E942C0380E0089540E067E083E00E94F3
:1003D0002C0380E0089581E0089590E08830910535
:1003E000E8F5FC01EE5CFF4F0C946E0741E060E025
:1003F00083E00E94B90380E0089541E061E083E07A
:100400000E94B90380E0089541E062E083E00E9429
:10041000B90380E0089541E063E083E00E94B903FE
:1004200080E0089541E064E083E00E94B90380E049
:10043000089541E065E083E00E94B90380E00895FB
:1004400041E066E083E00E94B90380E0089541E066
:1004500067E083E00E94B90380E0089581E0089599
:10046000462F50E048305105A8F5FA01E65CFF4FF1
:100470000C946E0741E060E00E942C0380E0089538
:1004800041E061E00E942C0380E0089541E062E0D9
:100490000E942C0380E0089541E063E00E942C0359
:1004A00080E0089541E064E00E942C0380E008951C
:1004B00041E065E00E942C0380E0089541E066E0A1
:1004C0000E942C0380E0089541E067E00E942C0325
:1004D00080E0089581E00895462F50E048305105AE
:1004E000A8F5FA01EE5BFF4F0C946E0741E060E067
:1004F0000E94B90380E0089541E061E00E94B903E1
:1005000080E0089541E062E00E94B90380E0089530
:1005100041E063E00E94B90380E0089541E064E0B7
:100520000E94B90380E0089541E065E00E94B903AC
:1005300080E0089541E066E00E94B90380E00895FC
:1005400041E067E00E94B90380E0089581E00895EA
:10055000462F50E048305105A8F5FA01E65BFF4F01
:100560000C946E0740E060E00E94B90380E00895BB
:1005700040E061E00E94B90380E0089540E062E05D
:100580000E94B90380E0089540E063E00E94B9034F
:1005900080E0089540E064E00E94B90380E008959F
:1005A00040E065E00E94B90380E0089540E066E025
:1005B0000E94B90380E0089540E067E00E94B9031B
:1005C00080E0089581E00895462F50E048305105BD
:1005D00068F5FA01EE5AFF4F0C946E0760E00E9436
:1005E000460480E0089561E00E94460480E008959A
:1005F00062E00E94460480E0089563E00E944604A1
:1006000080E0089564E00E94460480E0089565E07B
:100610000E94460480E0089566E00E94460480E05F
:10062000089567E00E94460480E0089581E00895FF
:1006300040E062E083E00E942C0341E062E083E05E
:100640000E94B90341E060E080E00E942C030E9418
:100650006E000E949300FDCF683008F07EC08130AC
:1006600029F138F0823009F43EC0833009F458C0D3
:1006700076C0413061F42AB381E090E002C0880F77
:10068000991F6A95E2F7822B8ABB80E00895411199
:1006900068C02AB381E090E002C0880F991F6A9574
:1006A000E2F7809582238ABB80E00895413061F4AF
:1006B00027B381E090E002C0880F991F6A95E2F7A6
:1006C000822B87BB80E0089541114DC027B381E0A4
:1006D00090E002C0880F991F6A95E2F78095822307
:1006E00087BB80E00895413061F424B381E090E05D
:1006F00002C0880F991F6A95E2F7822B84BB80E0C5
:100700000895411132C024B381E090E002C0880F07
:10071000991F6A95E2F78095822384BB80E0089553
:10072000413061F421B381E090E002C0880F991F4D
:100730006A95E2F7822B81BB80E00895411117C0D2
:1007400021B381E090E002C0880F991F6A95E2F71B
:100750008095822381BB80E0089581E0089581E047
:10076000089581E0089581E0089581E0089581E091
:100770000895683008F07EC0813029F138F0823069
:1007800009F43EC0833009F458C076C0413061F4AA
:100790002BB381E090E002C0880F991F6A95E2F7C1
:1007A000822B8BBB80E00895411168C02BB381E0A0
:1007B00090E002C0880F991F6A95E2F78095822326
:1007C0008BBB80E00895413061F428B381E090E074
:1007D00002C0880F991F6A95E2F7822B88BB80E0E0
:1007E000089541114DC028B381E090E002C0880F08
:1007F000991F6A95E2F78095822388BB80E008956F
:10080000413061F425B381E090E002C0880F991F68
:100810006A95E2F7822B85BB80E00895411132C0D2
:1008200025B381E090E002C0880F991F6A95E2F736
:100830008095822385BB80E00895413061F422B326
:1008400081E090E002C0880F991F6A95E2F7822B41
:1008500082BB80E00895411117C022B381E090E08F
:1008600002C0880F991F6A95E2F78095822382BBA8
:1008700080E0089581E0089581E0089581E0089581
:1008800081E0089581E0089581E00895813091F03C
:1008900028F08230D9F0833029F130C02BB381E0C9
:1008A00090E002C0880F991F6A95E2F782278BBB00
:1008B00080E0089528B381E090E002C0880F991F7E
:1008C0006A95E2F7822788BB80E0089525B381E02E
:1008D00090E002C0880F991F6A95E2F7822785BBD6
:1008E00080E0089522B381E090E002C0880F991F54
:1008F0006A95E2F7822782BB80E0089581E008953F
:1009000085B78E7F85BF85B7826085BF8BB78064D2
:100910008BBF80E008958FB780688FBF089583B73D
:100920008F7B83BF83B7877F83BF89B7816089BF90
:1009300080E0089583B7816083BF83B78D7F83BFD5
:1009400083B78B7F83BF80E0089583B78E7F83BF9B
:1009500083B78D7F83BF83B78B7F83BF80E008958C
:100960008F929F92AF92BF92CF92DF92EF92FF92BF
:10097000CF93DF930E9476064B015C012DEB37E3AA
:1009800046E859E30E94D005882309F458C02DEBAE
:1009900037E346E859E3C501B4010E94D005882336
:1009A000B4F4A50194016DEB77E386E899E30E9426
:1009B0004C0520E030E0A9010E94D5050E944706C1
:1009C000C62FC12CD12C7601C394D0E040C02DEBB2
:1009D00037E346E859E3C501B4010E9469071816D8
:1009E000ACF52DEB37E346E859E3C501B4010E94AD
:1009F000D5050E94B9050E9447066B017C0120E0E5
:100A000030E0A901C501B4010E94D5054B015C018C
:100A1000C701B6010E9476069B01AC01C501B40175
:100A20000E94D5059B01AC0160E070E080E893E492
:100A30000E944C050E944706C62FD0E008C0C0E0C7
:100A4000C12CD12C7601C394D0E001C0D1E0C2BF4B
:100A50000E949A0440E050E0BA010AC008B600FEC5
:100A6000FDCF88B7816088BF4F5F5F4F6F4F7F4F6B
:100A70004C155D056E057F0588F312BE0E94A50426
:100A80008D2FDF91CF91FF90EF90DF90CF90BF90AF
:100A9000AF909F908F9008955058BB27AA270E942F
:100AA00064050C9417070E94090738F00E9410078C
:100AB00020F039F49F3F19F426F40C9406070EF445
:100AC000E095E7FB0C94D706E92F0E94280758F31E
:100AD000BA17620773078407950720F079F4A6F523
:100AE0000C9462070EF4E0950B2EBA2FA02D0B018B
:100AF000B90190010C01CA01A0011124FF27591B63
:100B000099F0593F50F4503E68F11A16F040A22F68
:100B1000232F342F4427585FF3CF469537952795D9
:100B2000A795F0405395C9F77EF41F16BA0B620BD8
:100B3000730B840BBAF09150A1F0FF0FBB1F661F1F
:100B4000771F881FC2F70EC0BA0F621F731F841F62
:100B500048F4879577956795B795F7959E3F08F088
:100B6000B0CF9395880F08F09927EE0F979587954A
:100B700008950E944A0790F09F3748F4911116F4A7
:100B80000C94630760E070E080E89FE3089526F02E
:100B90001B16611D711D811D0C94DD060C94F80659
:100BA0000E94B30608F481E008950E94E9050C94C0
:100BB00017070E94100758F00E94090740F029F417
:100BC0005F3F29F00C94D70651110C9463070C94E5
:100BD00006070E94280768F39923B1F3552391F380
:100BE000951B550BBB27AA2762177307840738F09C
:100BF0009F5F5F4F220F331F441FAA1FA9F335D0F9
:100C00000E2E3AF0E0E832D091505040E695001CAC
:100C1000CAF72BD0FE2F29D0660F771F881FBB1F66
:100C2000261737074807AB07B0E809F0BB0B802D44
:100C3000BF01FF2793585F4F3AF09E3F510578F070
:100C40000C94D7060C9463075F3FE4F3983ED4F30B
:100C5000869577956795B795F7959F5FC9F7880F44
:100C6000911D9695879597F90895E1E0660F771F96
:100C7000881FBB1F621773078407BA0720F0621B27
:100C8000730B840BBA0BEE1F88F7E09508950E9452
:100C9000300788F09F5798F0B92F9927B751B0F0D7
:100CA000E1F0660F771F881F991F1AF0BA95C9F7F0
:100CB00014C0B13091F00E946207B1E008950C9425
:100CC0006207672F782F8827B85F39F0B93FCCF3D8
:100CD000869577956795B395D9F73EF4909580956D
:100CE000709561957F4F8F4F9F4F0895E89409C08D
:100CF00097FB3EF490958095709561957F4F8F4F4F
:100D00009F4F9923A9F0F92F96E9BB279395F69564
:100D1000879577956795B795F111F8CFFAF4BB0FE2
:100D200011F460FF1BC06F5F7F4F8F4F9F4F16C046
:100D3000882311F096E911C0772321F09EE8872FD0
:100D4000762F05C0662371F096E8862F70E060E08C
:100D50002AF09A95660F771F881FDAF7880F969505
:100D6000879597F90895990F0008550FAA0BE0E8A9
:100D7000FEEF16161706E807F907C0F0121613065D
:100D8000E407F50798F0621B730B840B950B39F49D
:100D90000A2661F0232B242B252B21F408950A2603
:100DA00009F4A140A6958FEF811D811D089597F943
:100DB0009F6780E870E060E00895882371F47723EE
:100DC00021F09850872B762F07C0662311F49927BE
:100DD0000DC09051862B70E060E02AF09A95660F66
:100DE000771F881FDAF7880F9695879597F90895EA
:100DF0009F3F31F0915020F4879577956795B7958F
:100E0000880F911D9695879597F908959FEF80EC2F
:100E1000089500240A941616170618060906089560
:100E200000240A9412161306140605060895092EC6
:100E30000394000C11F4882352F0BB0F40F4BF2B35
:100E400011F460FF04C06F5F7F4F8F4F9F4F089575
:100E500057FD9058440F551F59F05F3F71F047956B
:100E6000880F97FB991F61F09F3F79F08795089550
:100E7000121613061406551FF2CF4695F1DF08C06F
:100E8000161617061806991FF1CF8695710561058C
:100E9000089408950E943007A0F0BEE7B91788F4BF
:100EA000BB279F3860F41616B11D672F782F88274F
:100EB000985FF7CF869577956795B11D939596398D
:100EC000C8F30895E894BB2766277727CB0197F9E5
:100ED00008950E94B30608F48FEF0895EE0FFF1FE8
:0C0EE0000590F491E02D0994F894FFCFE8
:00000001FF
